{
  "address": "0x4FA2D52E6a6947A00E258b6aDdE5B0f38f45bA3B",
  "abi": [
    {
      "anonymous": false,
      "inputs": [
        {
          "indexed": false,
          "internalType": "address",
          "name": "sender",
          "type": "address"
        },
        {
          "indexed": false,
          "internalType": "uint256",
          "name": "amount",
          "type": "uint256"
        }
      ],
      "name": "Fallback",
      "type": "event"
    },
    {
      "anonymous": false,
      "inputs": [
        {
          "indexed": false,
          "internalType": "uint256",
          "name": "shipmentId",
          "type": "uint256"
        },
        {
          "indexed": false,
          "internalType": "enum Dchain.PaymentType",
          "name": "paymentType",
          "type": "uint8"
        },
        {
          "indexed": false,
          "internalType": "uint256",
          "name": "amount",
          "type": "uint256"
        },
        {
          "indexed": false,
          "internalType": "address",
          "name": "to",
          "type": "address"
        },
        {
          "indexed": false,
          "internalType": "uint256",
          "name": "timestamp",
          "type": "uint256"
        }
      ],
      "name": "PaymentMade",
      "type": "event"
    },
    {
      "anonymous": false,
      "inputs": [
        {
          "indexed": false,
          "internalType": "uint256",
          "name": "shipmentId",
          "type": "uint256"
        },
        {
          "indexed": false,
          "internalType": "uint256",
          "name": "amount",
          "type": "uint256"
        },
        {
          "indexed": false,
          "internalType": "address",
          "name": "to",
          "type": "address"
        },
        {
          "indexed": false,
          "internalType": "uint256",
          "name": "timpestamp",
          "type": "uint256"
        }
      ],
      "name": "PaymentReleased",
      "type": "event"
    },
    {
      "anonymous": false,
      "inputs": [
        {
          "indexed": false,
          "internalType": "address",
          "name": "sender",
          "type": "address"
        },
        {
          "indexed": false,
          "internalType": "uint256",
          "name": "amount",
          "type": "uint256"
        }
      ],
      "name": "Received",
      "type": "event"
    },
    {
      "anonymous": false,
      "inputs": [
        {
          "indexed": false,
          "internalType": "uint256",
          "name": "id",
          "type": "uint256"
        },
        {
          "indexed": false,
          "internalType": "enum Dchain.ShipmentType",
          "name": "shipmentType",
          "type": "uint8"
        },
        {
          "indexed": false,
          "internalType": "string",
          "name": "origin",
          "type": "string"
        },
        {
          "indexed": false,
          "internalType": "string",
          "name": "destination",
          "type": "string"
        },
        {
          "indexed": false,
          "internalType": "address",
          "name": "supplier",
          "type": "address"
        },
        {
          "indexed": false,
          "internalType": "uint256",
          "name": "amount",
          "type": "uint256"
        },
        {
          "indexed": false,
          "internalType": "uint256",
          "name": "timestamp",
          "type": "uint256"
        }
      ],
      "name": "ShipmentCreated",
      "type": "event"
    },
    {
      "anonymous": false,
      "inputs": [
        {
          "indexed": false,
          "internalType": "uint256",
          "name": "shipmentId",
          "type": "uint256"
        },
        {
          "indexed": false,
          "internalType": "uint256",
          "name": "paymentId",
          "type": "uint256"
        },
        {
          "indexed": false,
          "internalType": "enum Dchain.ShipmentType",
          "name": "shipmentType",
          "type": "uint8"
        },
        {
          "indexed": false,
          "internalType": "enum Dchain.ShipmentStatus",
          "name": "status",
          "type": "uint8"
        },
        {
          "indexed": false,
          "internalType": "address",
          "name": "updatedBy",
          "type": "address"
        },
        {
          "indexed": false,
          "internalType": "uint256",
          "name": "timestamp",
          "type": "uint256"
        }
      ],
      "name": "StatusUpdated",
      "type": "event"
    },
    {
      "stateMutability": "payable",
      "type": "fallback"
    },
    {
      "inputs": [],
      "name": "MOCKUSDT_ADDRESS",
      "outputs": [
        {
          "internalType": "address",
          "name": "",
          "type": "address"
        }
      ],
      "stateMutability": "view",
      "type": "function"
    },
    {
      "inputs": [
        {
          "components": [
            {
              "internalType": "enum Dchain.ShipmentType",
              "name": "shipmentType",
              "type": "uint8"
            },
            {
              "internalType": "string",
              "name": "origin",
              "type": "string"
            },
            {
              "internalType": "string",
              "name": "destination",
              "type": "string"
            },
            {
              "internalType": "address",
              "name": "supplier",
              "type": "address"
            },
            {
              "internalType": "address",
              "name": "transporter",
              "type": "address"
            },
            {
              "internalType": "address",
              "name": "retailer",
              "type": "address"
            },
            {
              "internalType": "enum Dchain.PaymentType",
              "name": "paymentType",
              "type": "uint8"
            },
            {
              "internalType": "uint256",
              "name": "amount",
              "type": "uint256"
            },
            {
              "internalType": "bytes32",
              "name": "data",
              "type": "bytes32"
            }
          ],
          "internalType": "struct Dchain.ShipmentDetails",
          "name": "details",
          "type": "tuple"
        }
      ],
      "name": "createShipment",
      "outputs": [],
      "stateMutability": "nonpayable",
      "type": "function"
    },
    {
      "inputs": [
        {
          "internalType": "uint256",
          "name": "_shipmentId",
          "type": "uint256"
        }
      ],
      "name": "handlePayment",
      "outputs": [],
      "stateMutability": "payable",
      "type": "function"
    },
    {
      "inputs": [],
      "name": "paymentCount",
      "outputs": [
        {
          "internalType": "uint256",
          "name": "",
          "type": "uint256"
        }
      ],
      "stateMutability": "view",
      "type": "function"
    },
    {
      "inputs": [
        {
          "internalType": "uint256",
          "name": "",
          "type": "uint256"
        }
      ],
      "name": "payments",
      "outputs": [
        {
          "internalType": "uint256",
          "name": "id",
          "type": "uint256"
        },
        {
          "internalType": "uint256",
          "name": "shipmentId",
          "type": "uint256"
        },
        {
          "internalType": "uint256",
          "name": "amount",
          "type": "uint256"
        },
        {
          "internalType": "enum Dchain.PaymentStatus",
          "name": "status",
          "type": "uint8"
        }
      ],
      "stateMutability": "view",
      "type": "function"
    },
    {
      "inputs": [],
      "name": "privateShipmentCount",
      "outputs": [
        {
          "internalType": "uint256",
          "name": "",
          "type": "uint256"
        }
      ],
      "stateMutability": "view",
      "type": "function"
    },
    {
      "inputs": [
        {
          "internalType": "uint256",
          "name": "_shipmentId",
          "type": "uint256"
        }
      ],
      "name": "releasePayment",
      "outputs": [],
      "stateMutability": "nonpayable",
      "type": "function"
    },
    {
      "inputs": [],
      "name": "shipmentCount",
      "outputs": [
        {
          "internalType": "uint256",
          "name": "",
          "type": "uint256"
        }
      ],
      "stateMutability": "view",
      "type": "function"
    },
    {
      "inputs": [
        {
          "internalType": "uint256",
          "name": "",
          "type": "uint256"
        }
      ],
      "name": "shipments",
      "outputs": [
        {
          "internalType": "uint256",
          "name": "id",
          "type": "uint256"
        },
        {
          "internalType": "uint256",
          "name": "paymentId",
          "type": "uint256"
        },
        {
          "internalType": "string",
          "name": "origin",
          "type": "string"
        },
        {
          "internalType": "string",
          "name": "destination",
          "type": "string"
        },
        {
          "internalType": "enum Dchain.ShipmentStatus",
          "name": "status",
          "type": "uint8"
        },
        {
          "internalType": "address",
          "name": "supplier",
          "type": "address"
        },
        {
          "internalType": "address",
          "name": "transporter",
          "type": "address"
        },
        {
          "internalType": "enum Dchain.PaymentType",
          "name": "paymentType",
          "type": "uint8"
        },
        {
          "internalType": "address",
          "name": "retailer",
          "type": "address"
        },
        {
          "internalType": "uint256",
          "name": "amount",
          "type": "uint256"
        },
        {
          "internalType": "enum Dchain.ShipmentType",
          "name": "shipmentType",
          "type": "uint8"
        },
        {
          "internalType": "bytes32",
          "name": "data",
          "type": "bytes32"
        }
      ],
      "stateMutability": "view",
      "type": "function"
    },
    {
      "inputs": [
        {
          "internalType": "uint256",
          "name": "_shipmentId",
          "type": "uint256"
        },
        {
          "internalType": "enum Dchain.ShipmentStatus",
          "name": "_status",
          "type": "uint8"
        }
      ],
      "name": "updateStatus",
      "outputs": [],
      "stateMutability": "nonpayable",
      "type": "function"
    },
    {
      "stateMutability": "payable",
      "type": "receive"
    }
  ],
  "transactionHash": "0xe1c0ecb40b6bd858191104b0dcd0ad8911d3483a151cf24cee4a1da126b36ffc",
  "args": [],
  "numDeployments": 2,
  "solcInputHash": "35cd35c07973fb9dd7d1eaefe5a5525b",
  "bytecode": "0x608060405260006003556000600455600060055534801561001f57600080fd5b506116ff8061002f6000396000f3fe6080604052600436106100955760003560e01c806387d817891161005957806387d81789146101c057806388685cd91461021757806399576c7f14610237578063aace20b71461024d578063d1d54c0514610263576100d5565b80630937e68a1461010a5780632ac08a93146101335780633a1b3d311461016b57806365c550cb1461018d57806370594b7c146101a0576100d5565b366100d557604080513381523460208201527f88a5966d370b9919b20f3e2c13ff65706f196a4e32cc2c12bf57088f8852587491015b60405180910390a1005b604080513381523460208201527ffbf15a1bae5e021d024841007b692b167afd2a281a4ff0b44f47387eb388205c91016100cb565b34801561011657600080fd5b5061012060055481565b6040519081526020015b60405180910390f35b34801561013f57600080fd5b5061015361014e3660046110c6565b61029b565b60405161012a9c9b9a99989796959493929190611162565b34801561017757600080fd5b5061018b610186366004611224565b610421565b005b61018b61019b3660046110c6565b610695565b3480156101ac57600080fd5b5061018b6101bb366004611347565b6109fc565b3480156101cc57600080fd5b506102076101db3660046110c6565b600260208190526000918252604090912080546001820154928201546003909201549092919060ff1684565b60405161012a9493929190611445565b34801561022357600080fd5b5061018b6102323660046110c6565b610f1d565b34801561024357600080fd5b5061012060045481565b34801561025957600080fd5b5061012060035481565b34801561026f57600080fd5b50600054610283906001600160a01b031681565b6040516001600160a01b03909116815260200161012a565b60016020819052600091825260409091208054918101546002820180549192916102c490611472565b80601f01602080910402602001604051908101604052809291908181526020018280546102f090611472565b801561033d5780601f106103125761010080835404028352916020019161033d565b820191906000526020600020905b81548152906001019060200180831161032057829003601f168201915b50505050509080600301805461035290611472565b80601f016020809104026020016040519081016040528092919081815260200182805461037e90611472565b80156103cb5780601f106103a0576101008083540402835291602001916103cb565b820191906000526020600020905b8154815290600101906020018083116103ae57829003601f168201915b5050505060048301546005840154600685015460078601546008870154600990970154959660ff808616976101009096046001600160a01b03908116975080861696600160a01b9096048216959416939116908c565b60008211801561043357506003548211155b6104845760405162461bcd60e51b815260206004820152601760248201527f536869706d656e7420646f6573206e6f7420657869737400000000000000000060448201526064015b60405180910390fd5b60008281526001602081815260408084209283015484526002909152909120600482015461010090046001600160a01b03163314806104cf575060058201546001600160a01b031633145b61050c5760405162461bcd60e51b815260206004820152600e60248201526d139bdd08185d5d1a1bdc9a5e995960921b604482015260640161047b565b600283600281111561052057610520611125565b0361054a576002600382015460ff16600281111561054057610540611125565b1461054a57600080fd5b600183600281111561055e5761055e611125565b14801561058a575060006005830154600160a01b900460ff16600281111561058857610588611125565b145b156105b4576000600382015460ff1660028111156105aa576105aa611125565b146105b457600080fd5b60018360028111156105c8576105c8611125565b1480156105f4575060016005830154600160a01b900460ff1660028111156105f2576105f2611125565b145b1561061e576002600382015460ff16600281111561061457610614611125565b1461061e57600080fd5b60048201805484919060ff1916600183600281111561063f5761063f611125565b0217905550805460088301546040517f2e1ddf97473bd2c82602d05940cc2b3be62c6ab700716120aedc60d189ad5c1e9261068792889260ff909116908890339042906114ac565b60405180910390a150505050565b600081815260016020526040902060078101543410156106f75760405162461bcd60e51b815260206004820152601860248201527f496e636f7272656374207061796d656e7420616d6f756e740000000000000000604482015260640161047b565b60058054906000610707836114f6565b90915550600190506005820154600160a01b900460ff16600281111561072f5761072f611125565b036107f857600481015460078201546040516101009092046001600160a01b0316916108fc82150291906000818181858888f19350505050158015610778573d6000803e3d6000fd5b50604080516080810182526005548082528354602080840191825260078601548486019081526002606086018181526000958652928190529590932084518155915160018084019190915592518286015551600382018054949592949193909260ff199092169184908111156107f0576107f0611125565b021790555050505b60026005820154600160a01b900460ff16600281111561081a5761081a611125565b036108e357600481015460078201546040516101009092046001600160a01b0316916108fc82150291906000818181858888f19350505050158015610863573d6000803e3d6000fd5b50604080516080810182526005548082528354602080840191825260078601548486019081526002606086018181526000958652928190529590932084518155915160018084019190915592518286015551600382018054949592949193909260ff199092169184908111156108db576108db611125565b021790555050505b60006005820154600160a01b900460ff16600281111561090557610905611125565b0361098b5760408051608081018252600554808252835460208084019182526007860154848601908152600060608601818152948152600292839052959095208451815591516001808401919091559451828201559151600382018054949592949193909260ff199092169190849081111561098357610983611125565b021790555050505b600580546001830155810154600782015460048301546040517f24915b72ad084019ed9372d0eff9d14d97a5dec8840727a50c58a3f11d5b9afa936109f0938793600160a01b90920460ff1692909161010090046001600160a01b031690429061151d565b60405180910390a15050565b8051602082015160408301516060840151608085015160a08601516101008701516001600160a01b038316610a735760405162461bcd60e51b815260206004820152601760248201527f5472616e73706f72746572206973207265717569726564000000000000000000604482015260640161047b565b6001600160a01b038216610ac05760405162461bcd60e51b815260206004820152601460248201527314995d185a5b195c881a5cc81c995c5d5a5c995960621b604482015260640161047b565b6001600160a01b038416610b0d5760405162461bcd60e51b815260206004820152601460248201527314dd5c1c1b1a595c881a5cc81c995c5d5a5c995960621b604482015260640161047b565b6000876001811115610b2157610b21611125565b03610bc2576000865111610b6c5760405162461bcd60e51b815260206004820152601260248201527113dc9a59da5b881a5cc81c995c5d5a5c995960721b604482015260640161047b565b6000855111610bbd5760405162461bcd60e51b815260206004820152601760248201527f44657374696e6174696f6e206973207265717569726564000000000000000000604482015260640161047b565b610c97565b80610c025760405162461bcd60e51b815260206004820152601060248201526f11185d18481a5cc81c995c5d5a5c995960821b604482015260640161047b565b845115610c515760405162461bcd60e51b815260206004820152601960248201527f44657374696e6174696f6e206d75737420626520656d70747900000000000000604482015260640161047b565b855115610c975760405162461bcd60e51b81526020600482015260146024820152734f726967696e206d75737420626520656d70747960601b604482015260640161047b565b60038054906000610ca7836114f6565b9190505550604051806101800160405280600354815260200160008152602001896020015181526020018960400151815260200160006002811115610cee57610cee611125565b8152602001336001600160a01b0316815260200189608001516001600160a01b031681526020018960c001516002811115610d2b57610d2b611125565b81526020018960a001516001600160a01b031681526020018960e00151815260200189600001516001811115610d6357610d63611125565b81526101008a0151602091820152600354600090815260018083526040918290208451815592840151908301558201516002820190610da290826115a8565b5060608201516003820190610db790826115a8565b50608082015160048201805460ff19166001836002811115610ddb57610ddb611125565b021790555060a08201516004820180546001600160a01b0392831661010002610100600160a81b031990911617905560c0830151600583018054919092166001600160a01b031982168117835560e085015192916001600160a81b03191617600160a01b836002811115610e5157610e51611125565b02179055506101008201516006820180546001600160a01b0319166001600160a01b03909216919091179055610120820151600782015561014082015160088201805460ff191660018381811115610eab57610eab611125565b021790555061016082015181600901559050507fb9ad0353615ea8b78297d62c728a1cde13dbed7e1e655992b7ddc80fba0dff4560035489600001518a602001518b60400151338d60e0015142604051610f0b9796959493929190611668565b60405180910390a15050505050505050565b60008181526001602081815260408084209283015484526002909152822090916005830154600160a01b900460ff166002811115610f5d57610f5d611125565b14610faa5760405162461bcd60e51b815260206004820152601c60248201527f5061796d656e742074797065206973206e6f7420657363726f77656400000000604482015260640161047b565b6002600382015460ff166002811115610fc557610fc5611125565b036110125760405162461bcd60e51b815260206004820152601860248201527f5061796d656e7420616c72656164792072656c65617365640000000000000000604482015260640161047b565b600482015460078301546040516101009092046001600160a01b0316916108fc82150291906000818181858888f19350505050158015611056573d6000803e3d6000fd5b5060038101805460ff19166002179055600782015460068301546040805186815260208101939093526001600160a01b03909116908201524260608201527f9ba01c1cf20940d4ad9b32173c4bd46bf426aae91b6cb420123d2aa5e2b76c6f9060800160405180910390a1505050565b6000602082840312156110d857600080fd5b5035919050565b6000815180845260005b81811015611105576020818501810151868301820152016110e9565b506000602082860101526020601f19601f83011685010191505092915050565b634e487b7160e01b600052602160045260246000fd5b6003811061114b5761114b611125565b50565b6002811061115e5761115e611125565b9052565b60006101808e83528d60208401528060408401526111828184018e6110df565b90508281036060840152611196818d6110df565b9150506111a28a61113b565b608082018a90526001600160a01b0389811660a084015288811660c08401526111ca8861113b565b8760e084015280871661010084015250846101208301526111ef61014083018561114e565b826101608301529d9c50505050505050505050505050565b6003811061114b57600080fd5b803561121f81611207565b919050565b6000806040838503121561123757600080fd5b82359150602083013561124981611207565b809150509250929050565b634e487b7160e01b600052604160045260246000fd5b604051610120810167ffffffffffffffff8111828210171561128e5761128e611254565b60405290565b80356002811061121f57600080fd5b600082601f8301126112b457600080fd5b813567ffffffffffffffff808211156112cf576112cf611254565b604051601f8301601f19908116603f011681019082821181831017156112f7576112f7611254565b8160405283815286602085880101111561131057600080fd5b836020870160208301376000602085830101528094505050505092915050565b80356001600160a01b038116811461121f57600080fd5b60006020828403121561135957600080fd5b813567ffffffffffffffff8082111561137157600080fd5b90830190610120828603121561138657600080fd5b61138e61126a565b61139783611294565b81526020830135828111156113ab57600080fd5b6113b7878286016112a3565b6020830152506040830135828111156113cf57600080fd5b6113db878286016112a3565b6040830152506113ed60608401611330565b60608201526113fe60808401611330565b608082015261140f60a08401611330565b60a082015261142060c08401611214565b60c082015260e083810135908201526101009283013592810192909252509392505050565b8481526020810184905260408101839052608081016114638361113b565b82606083015295945050505050565b600181811c9082168061148657607f821691505b6020821081036114a657634e487b7160e01b600052602260045260246000fd5b50919050565b8681526020810186905260c081016114c7604083018761114e565b6114d08561113b565b60608201949094526001600160a01b0392909216608083015260a0909101529392505050565b60006001820161151657634e487b7160e01b600052601160045260246000fd5b5060010190565b85815260a0810161152d8661113b565b602082019590955260408101939093526001600160a01b03919091166060830152608090910152919050565b601f8211156115a357600081815260208120601f850160051c810160208610156115805750805b601f850160051c820191505b8181101561159f5782815560010161158c565b5050505b505050565b815167ffffffffffffffff8111156115c2576115c2611254565b6115d6816115d08454611472565b84611559565b602080601f83116001811461160b57600084156115f35750858301515b600019600386901b1c1916600185901b17855561159f565b600085815260208120601f198616915b8281101561163a5788860151825594840194600190910190840161161b565b50858210156116585787850151600019600388901b60f8161c191681555b5050505050600190811b01905550565b878152611678602082018861114e565b60e06040820152600061168e60e08301886110df565b82810360608401526116a081886110df565b6001600160a01b03969096166080840152505060a081019290925260c09091015294935050505056fea2646970667358221220d8e609699cf0eeaad8839eac089ee0bf7acca8f9bb1d81373aed50f5e969238a64736f6c63430008110033",
  "devdoc": {
    "kind": "dev",
    "methods": {},
    "version": 1
  },
  "userdoc": {
    "kind": "user",
    "methods": {},
    "version": 1
  },
  "storageLayout": {
    "storage": [
      {
        "astId": 829,
        "contract": "contracts/Dchain.sol:Dchain",
        "label": "MOCKUSDT_ADDRESS",
        "offset": 0,
        "slot": "0",
        "type": "t_address"
      },
      {
        "astId": 908,
        "contract": "contracts/Dchain.sol:Dchain",
        "label": "shipments",
        "offset": 0,
        "slot": "1",
        "type": "t_mapping(t_uint256,t_struct(Shipment)878_storage)"
      },
      {
        "astId": 913,
        "contract": "contracts/Dchain.sol:Dchain",
        "label": "payments",
        "offset": 0,
        "slot": "2",
        "type": "t_mapping(t_uint256,t_struct(Payment)903_storage)"
      },
      {
        "astId": 916,
        "contract": "contracts/Dchain.sol:Dchain",
        "label": "shipmentCount",
        "offset": 0,
        "slot": "3",
        "type": "t_uint256"
      },
      {
        "astId": 919,
        "contract": "contracts/Dchain.sol:Dchain",
        "label": "privateShipmentCount",
        "offset": 0,
        "slot": "4",
        "type": "t_uint256"
      },
      {
        "astId": 922,
        "contract": "contracts/Dchain.sol:Dchain",
        "label": "paymentCount",
        "offset": 0,
        "slot": "5",
        "type": "t_uint256"
      }
    ],
    "types": {
      "t_address": {
        "encoding": "inplace",
        "label": "address",
        "numberOfBytes": "20"
      },
      "t_bytes32": {
        "encoding": "inplace",
        "label": "bytes32",
        "numberOfBytes": "32"
      },
      "t_enum(PaymentStatus)890": {
        "encoding": "inplace",
        "label": "enum Dchain.PaymentStatus",
        "numberOfBytes": "1"
      },
      "t_enum(PaymentType)886": {
        "encoding": "inplace",
        "label": "enum Dchain.PaymentType",
        "numberOfBytes": "1"
      },
      "t_enum(ShipmentStatus)882": {
        "encoding": "inplace",
        "label": "enum Dchain.ShipmentStatus",
        "numberOfBytes": "1"
      },
      "t_enum(ShipmentType)893": {
        "encoding": "inplace",
        "label": "enum Dchain.ShipmentType",
        "numberOfBytes": "1"
      },
      "t_mapping(t_uint256,t_struct(Payment)903_storage)": {
        "encoding": "mapping",
        "key": "t_uint256",
        "label": "mapping(uint256 => struct Dchain.Payment)",
        "numberOfBytes": "32",
        "value": "t_struct(Payment)903_storage"
      },
      "t_mapping(t_uint256,t_struct(Shipment)878_storage)": {
        "encoding": "mapping",
        "key": "t_uint256",
        "label": "mapping(uint256 => struct Dchain.Shipment)",
        "numberOfBytes": "32",
        "value": "t_struct(Shipment)878_storage"
      },
      "t_string_storage": {
        "encoding": "bytes",
        "label": "string",
        "numberOfBytes": "32"
      },
      "t_struct(Payment)903_storage": {
        "encoding": "inplace",
        "label": "struct Dchain.Payment",
        "members": [
          {
            "astId": 895,
            "contract": "contracts/Dchain.sol:Dchain",
            "label": "id",
            "offset": 0,
            "slot": "0",
            "type": "t_uint256"
          },
          {
            "astId": 897,
            "contract": "contracts/Dchain.sol:Dchain",
            "label": "shipmentId",
            "offset": 0,
            "slot": "1",
            "type": "t_uint256"
          },
          {
            "astId": 899,
            "contract": "contracts/Dchain.sol:Dchain",
            "label": "amount",
            "offset": 0,
            "slot": "2",
            "type": "t_uint256"
          },
          {
            "astId": 902,
            "contract": "contracts/Dchain.sol:Dchain",
            "label": "status",
            "offset": 0,
            "slot": "3",
            "type": "t_enum(PaymentStatus)890"
          }
        ],
        "numberOfBytes": "128"
      },
      "t_struct(Shipment)878_storage": {
        "encoding": "inplace",
        "label": "struct Dchain.Shipment",
        "members": [
          {
            "astId": 852,
            "contract": "contracts/Dchain.sol:Dchain",
            "label": "id",
            "offset": 0,
            "slot": "0",
            "type": "t_uint256"
          },
          {
            "astId": 854,
            "contract": "contracts/Dchain.sol:Dchain",
            "label": "paymentId",
            "offset": 0,
            "slot": "1",
            "type": "t_uint256"
          },
          {
            "astId": 856,
            "contract": "contracts/Dchain.sol:Dchain",
            "label": "origin",
            "offset": 0,
            "slot": "2",
            "type": "t_string_storage"
          },
          {
            "astId": 858,
            "contract": "contracts/Dchain.sol:Dchain",
            "label": "destination",
            "offset": 0,
            "slot": "3",
            "type": "t_string_storage"
          },
          {
            "astId": 861,
            "contract": "contracts/Dchain.sol:Dchain",
            "label": "status",
            "offset": 0,
            "slot": "4",
            "type": "t_enum(ShipmentStatus)882"
          },
          {
            "astId": 863,
            "contract": "contracts/Dchain.sol:Dchain",
            "label": "supplier",
            "offset": 1,
            "slot": "4",
            "type": "t_address"
          },
          {
            "astId": 865,
            "contract": "contracts/Dchain.sol:Dchain",
            "label": "transporter",
            "offset": 0,
            "slot": "5",
            "type": "t_address"
          },
          {
            "astId": 868,
            "contract": "contracts/Dchain.sol:Dchain",
            "label": "paymentType",
            "offset": 20,
            "slot": "5",
            "type": "t_enum(PaymentType)886"
          },
          {
            "astId": 870,
            "contract": "contracts/Dchain.sol:Dchain",
            "label": "retailer",
            "offset": 0,
            "slot": "6",
            "type": "t_address"
          },
          {
            "astId": 872,
            "contract": "contracts/Dchain.sol:Dchain",
            "label": "amount",
            "offset": 0,
            "slot": "7",
            "type": "t_uint256"
          },
          {
            "astId": 875,
            "contract": "contracts/Dchain.sol:Dchain",
            "label": "shipmentType",
            "offset": 0,
            "slot": "8",
            "type": "t_enum(ShipmentType)893"
          },
          {
            "astId": 877,
            "contract": "contracts/Dchain.sol:Dchain",
            "label": "data",
            "offset": 0,
            "slot": "9",
            "type": "t_bytes32"
          }
        ],
        "numberOfBytes": "320"
      },
      "t_uint256": {
        "encoding": "inplace",
        "label": "uint256",
        "numberOfBytes": "32"
      }
    }
  }
}